:100000000C94BD000C94D2000C94D2000C94D2003D
:100010000C94D2000C94D2000C94D2000C94D20018
:100020000C94D2000C94D2000C94D2000C94D20008
:100030000C94D2000C94D2000C94D2000C94D200F8
:100040000C94D2000C94D2000C94D2000C94D200E8
:100050000C94D2003A0B3D0B400B430B460B490B63
:100060004C0B00407A10F35A00A0724E1809001091
:10007000A5D4E80000E87648170000E40B5402001D
:1000800000CA9A3B000000E1F50500008096980048
:10009000000040420F000000A08601000000102771
:1000A00000000000E8030000000064000000000001
:1000B0000A00000000000100000000002C76D88833
:1000C000DC674F0823DFC1DFAE59E1B1B796E5E346
:1000D000E453C63AE651997696E8E6C28426EB895F
:1000E0008C9B62ED407C6FFCEFBC9C9F40F2BAA5FC
:1000F0006FA5F490055A2AF75C936B6CF9676DC194
:100100001BFCE0E40D47FEF520E6B500D0ED902E97
:100110000300943577050080841E080000204E0AF5
:10012000000000C80C333333330F986E1283114133
:10013000EF8D2114893BE65516CFFEE6DB18D184FE
:100140004B381BF77C1D901DA4BBE4242032847225
:100150005E228100C9F124ECA1E53D2732313A321B
:10016000303A34340032322E31312E3230313800D0
:1001700034333300312E302E300011241FBECFE532
:10018000D4E0DEBFCDBF11E0A0E6B0E0E2E7F6E2EA
:1001900002C005900D92A830B107D9F70E949D08C2
:1001A0000C9437130C940000FC01892B89F0838197
:1001B0009481892B69F085819681892B49F091E0A2
:1001C00027813085232B09F090E0892F81950895B0
:1001D0008FEF0895C4986FB9779BFECFFA01240F73
:1001E000351F8FEFE217F30731F08FB9779BFECF02
:1001F0009FB19193F7CFC49A80E00895F901C49814
:1002000030E0832F90E08E179F0760F46FB9779BE3
:10021000FECFDA01A80FB91F8C918FB9779BFECF63
:100220003F5FEFCFC49A80E00895611571058105A5
:10023000910559F0EFECF7E03197F1F700C00000BD
:100240006150710981099109F0CF0895EF92FF92F1
:100250000F931F93CF93DF93182F7B01042FE90196
:10026000C9010E94D400811113C0E114F10481F08E
:100270008A81811101C01068202F30E0EB81FC8160
:10028000A701612F89810995882319F08CEF01C09E
:100290008FEFDF91CF911F910F91FF90EF90089515
:1002A000AF92BF92CF92DF92EF92FF921F93CF93C4
:1002B000DF93CDB7DEB728970FB6F894DEBF0FBE39
:1002C000CDBF7C015B016901142F453008F014E0BB
:1002D000C6010E94D400811151C0E114F10409F457
:1002E0004DC0A114B10409F449C0112309F448C058
:1002F000D5018C918983F6018281882329F0113000
:1003000069F421E030E028C09E2DF70180818F77CD
:1003100081938E2F891B8117C8F3F1CFD7011196D6
:100320008C9111978A83F50181818B83123069F05A
:1003300012968C9112978C8382818D83143029F4CC
:1003400013968C918E8383818F83412F50E0440FCD
:10035000551F9A0121503109D6011596ED91FC9156
:100360001697AE014F5F5F4FD7016C91D601119682
:100370008C910995882329F08CEF03C08FEF01C081
:100380008DEF28960FB6F894DEBF0FBECDBFDF917C
:10039000CF911F91FF90EF90DF90CF90BF90AF90E3
:1003A0000895EF92FF921F93CF93DF9300D0CDB7C4
:1003B000DEB77C0180EE8A8386EB8983C7010E94C9
:1003C000D400182F811114C0970141E0BE016F5F66
:1003D0007F4FCE0102960E945001182FD701179629
:1003E000ED91FC91189762E070E080E090E0099553
:1003F000812F0F900F90DF91CF911F91FF90EF9081
:100400000895DF92EF92FF920F931F93CF93DF93A4
:1004100000D000D0CDB7DEB7D82E8B017A011B8279
:100420001C8284EF898385EF8A83CA010E94D400ED
:10043000811163C00115110509F45FC0970142E005
:10044000BE016D5F7F4F84EF0E942601811156C06F
:10045000C7010E94D101811151C0F8012081F0E251
:100460002F9F900111248B818F71282B237EF801FF
:100470009181F4E09F9FC00111248C71822B8B83AA
:10048000F8012281F0E22F9F900111246C816F719D
:10049000262BF8019381F4E09F9FB00111246C7129
:1004A000227E622BF80184818170682B6C83970116
:1004B00042E0BE016D5F7F4FCE0101960E94500168
:1004C00081111CC095E0F801D701959601900D921D
:1004D0009A95E1F7DD2091F09D2D93708B818C7FB3
:1004E000D92ED82ADB82970141E0BE016D5F7F4F94
:1004F000CE0101960E94500101C08FEF0F900F9026
:100500000F900F90DF91CF911F910F91FF90EF907F
:10051000DF900895EF92FF920F931F93CF93DF9395
:10052000CDB7DEB768970FB6F894DEBF0FBECDBF6C
:100530008C010E94D4008111A4C0E5E0FE2E980138
:1005400041E0B80180ED0E942601811185C0D801EB
:100550008C918655833008F07FC0C8010E94D1017C
:1005600081118FC0FE0131967F0188E1DF011D926C
:100570008A95E9F7C8010E94D40081116AC09801E8
:1005800048E1B70188E80E942601811162C02A81F2
:1005900030E0322F22279981292BF80132872187D9
:1005A0002C8130E0322F22279B81292B348723870F
:1005B0002E8130E0322F22279D81292B36872587F7
:1005C000288530E0322F22279F81292B308B2787E7
:1005D0002A8530E0322F22279985292B328B218BD7
:1005E0002C8530E0322F22279B85292B348B238BBF
:1005F0002E8530E0322F22279D85292B368B258BA7
:10060000288930E0322F22279F85292B308F278B96
:100610002A8930E0322F22279989292B328F218F86
:100620002C8930E0322F22279B89292B348F238F6E
:100630002E8930E0322F22279D89292B368F258F56
:10064000288D30E0322F22279F89292B30A3278F36
:1006500012C0882381F015C0D8011796ED91FC9146
:1006600018976AE070E080E090E00995FA94F11044
:1006700066CF8EEF06C0F80110A616A215A217A22B
:1006800011A668960FB6F894DEBF0FBECDBFDF91FE
:10069000CF911F910F91FF90EF900895EF92FF92ED
:1006A0000F931F93CF93DF9300D0CDB7DEB78C01AC
:1006B0007B0119821A82CB010E94D400811133C0C0
:1006C0000115110581F1970142E0BE016F5F7F4F77
:1006D00084EF0E942601811127C04981942F9295B1
:1006E00096959770F80190834C7150E05595479519
:1006F0005595479541839A81292F229526952770F4
:100700002283292F2C7130E0359527953595279533
:1007100023839170948395E0D701959601900D9273
:100720009A95E1F701C08FEF0F900F90DF91CF9175
:100730001F910F91FF90EF900895AB01BC0180E0F5
:100740000C9401021F93CF93DF93182FEB01CB0181
:100750000E94D40081110AC0BE016B5D7F4FAE01C3
:10076000812FDF91CF911F910C940102DF91CF91E6
:100770001F910895CF92DF92EF92FF920F931F93F4
:10078000CF93DF9300D000D000D0CDB7DEB78C017F
:100790006B01CE0101967C0186E0F70111928A95EA
:1007A000E9F7CB010E94D400811156C00115110553
:1007B00009F452C0960146E0B70187EF0E94260176
:1007C0004A8150E060E070E06A017B0194E0CC0C6B
:1007D000DD1CEE1CFF1C9A95D1F79981492F50E042
:1007E00060E070E02CE0440F551F661F771F2A95CC
:1007F000D1F74C295D296E297F299B8192959F70A5
:10080000492BF80144835583668377834D8150E0FB
:1008100060E070E06A017B0134E0CC0CDD1CEE1C72
:10082000FF1C3A95D1F79C81492F50E060E070E0C1
:10083000ACE0440F551F661F771FAA95D1F74C29CE
:100840005D296E297F299E8192959F70492B408357
:1008500051836283738301C08FEF26960FB6F8949D
:10086000DEBF0FBECDBFDF91CF911F910F91FF90E3
:10087000EF90DF90CF9008954F925F926F927F92AA
:100880008F929F92AF92BF92CF92DF92EF92FF92A0
:10089000CF93DF936B017C01EA01CA010E94D4006F
:1008A000811180C0C701B6010E94EC0C6B017C0174
:1008B00089859A85BC0180E090E00E94EC0C2B01B8
:1008C0003C0120E030E040E057E3C701B6010E9460
:1008D000A30D4B015C0120E030E040E059E3C3018F
:1008E000B2010E94A30D9B01AC01C501B4010E949D
:1008F000D20B4B015C0120E030E040E858E3C70137
:10090000B6010E94A30D6B017C0120E030E040E8BD
:100910005AE3C301B2010E94A30D9B01AC01C701C0
:10092000B6010E94D20B6B017C018B859C85BC01BA
:10093000990F880B990B0E94EE0C9B01AC01C7012B
:10094000B6010E94A30D6B017C01A5019401C501B4
:10095000B4010E94A30D4B015C018D859E85BC01F5
:10096000990F880B990B0E94EE0C9B01AC01C501FD
:10097000B4010E94A30D9B01AC01C701B6010E9406
:10098000D30B6B017C010E94B60C69A37AA38BA3E5
:100990009CA320E030E040EA55E4C701B6010E9484
:1009A000440C03C060E070E0CB01DF91CF91FF9079
:1009B000EF90DF90CF90BF90AF909F908F907F90FF
:1009C0006F905F904F9008952F923F924F925F9259
:1009D0006F927F928F929F92AF92BF92CF92DF924F
:1009E000EF92FF920F931F93CF93DF93CDB7DEB7B4
:1009F00028970FB6F894DEBF0FBECDBF4B015C0148
:100A000058874F83CA010E94D400811145C1EF81EC
:100A1000F88561A172A183A194A10E94EE0C20E04F
:100A200030E040E05FE30E94A30D20E030E04AE7C1
:100A300057E40E94D20B6B017C01EF81F885018D98
:100A4000128D2788308C258936893E832D836389D2
:100A50007489072E000C880B990B0E94EE0CA701DD
:100A600096010E94A30DA70196010E94A30D20E00C
:100A700030E040E056E30E94A30D2B013C01EF81E2
:100A8000F88561897289072E000C880B990B0E94EA
:100A9000EE0CA70196010E94A30D9B01AC01C301BE
:100AA000B2010E94D30B20E030E040E056E30E9408
:100AB000A30D20E030E040E058E30E94A30D20E0C9
:100AC00030E040E85FE30E94D30B2B013C01EF8153
:100AD000F8856785708980E090E00E94EC0C9B01AE
:100AE000AC01C301B2010E94A30D69837A838B8399
:100AF0009C8320E030E0A9010E943F0C882309F488
:100B0000CBC0A7019601C701B6010E94A30D2B011E
:100B10003C01B801110F880B990B0E94EE0C9B0150
:100B2000AC01C301B2010E94A30D20E030E040E01F
:100B300058E30E94A30D2B013C01B101330C880B3B
:100B4000990B0E94EE0C9B01AC01C701B6010E94FB
:100B5000A30D9B01AC010E94D30B9B01AC01C3010F
:100B6000B2010E94D30B20E030E040E85EE30E9437
:100B7000A30D6B017C01C501B4010E94EC0C9B012B
:100B8000AC0160E070E080E899E40E94D20B4B0178
:100B90005C012D813E81B901330F880B990B0E94B6
:100BA000EE0C20E030E040E857E40E94A30D9B01EA
:100BB000AC01C701B6010E94D30B20E030E040E851
:100BC00059E30E94A30D9B01AC01C501B4010E9431
:100BD000D20B20E030E543EC55E40E94A30D2981BF
:100BE0003A814B815C810E94440C6B017C01EF8156
:100BF000F885678D70A1072E000C880B990B0E9459
:100C0000EE0CA70196010E94A30DA70196010E9478
:100C1000A30D20E030E040E050E30E94A30D4B0123
:100C20005C01EF81F885858D968DBC01990F880B4D
:100C3000990B0E94EE0C9B01AC01C701B6010E940A
:100C4000A30D20E030E040E058E30E94A30D9B019B
:100C5000AC01C501B4010E94D30B4B015C01EF81D3
:100C6000F885838D948DBC01990F880B990B0E9498
:100C7000EE0C9B01AC01C501B4010E94D30B20E036
:100C800030E040E85DE30E94A30D9B01AC01C70189
:100C9000B6010E94D30B03C060E070E0CB01289640
:100CA0000FB6F894DEBF0FBECDBFDF91CF911F917D
:100CB0000F91FF90EF90DF90CF90BF90AF909F90FB
:100CC0008F907F906F905F904F903F902F900895FE
:100CD0000F931F93CF93DF93EC010E94D4008111F7
:100CE00049C0EEA141E050E060E070E08A019B0164
:100CF0000E2E04C0000F111F221F331F0A94D2F7BB
:100D000036952795179507950DA004C0440F551FDC
:100D1000661F771F0A94D2F7769567955795479582
:100D2000D901C801840F951FA61FB71F9C01AD01F3
:100D3000A0EDB7E00E94810BE11104C000E010E0DB
:100D4000980104C004EF11E020E030E0AB01BC01E9
:100D500044525A4F6F4F7F4FCB01BA01600F711F42
:100D6000821F931F28EE33E040E050E00E94590BB1
:100D7000822F01C080E0DF91CF911F910F910895E4
:100D80000F931F93CF93DF9300D000D000D0CDB747
:100D9000DEB78C01FC01118212828AEE90E094830E
:100DA00083838EEF90E09683858385E191E0908741
:100DB0008783C8010E948A028E830E948D078E81DC
:100DC000882389F060E080E00E94860780E690E05A
:100DD0000E947A07FFEF29E688E1F1502040804029
:100DE000E1F700C00000B801CE0101960E944E0359
:100DF000882389F060E080E00E9486078BE690E01F
:100E00000E947A079FEFE9E6F8E19150E040F04058
:100E1000E1F700C0000081E08C8385E08A8393E0E5
:100E200099838B83B801CE0101960E949D0388238C
:100E300089F060E080E00E9486078BE790E00E94E6
:100E40007A072FEF89E698E1215080409040E1F742
:100E500000C00000B80183E00E94A203882389F04B
:100E600060E080E00E9486078BE890E00E947A07AD
:100E7000EFEFF9E628E1E150F0402040E1F700C053
:100E8000000026960FB6F894DEBF0FBECDBFDF91EF
:100E9000CF911F910F91089580FF02C0D89A01C091
:100EA000D89881FF02C0D99A01C0D99882FF02C0A8
:100EB000DA9A01C0DA9883FF02C0DB9A0895DB98C2
:100EC0000895CF93C82FDF9A82958F700E944C07A8
:100ED000DF98DF9A8C2F0E944C07DF9885E88A956F
:100EE000F1F70000CF910895DE980C946107DE9A27
:100EF0000C946107CF93DF93EC018991882319F05B
:100F00000E947707FACFDF91CF91089590E4699F0F
:100F1000800D112480680C94740781E00E9474078E
:100F20008FE99FE00197F1F700C000000895CF938B
:100F3000D09AD19AD29AD39AD79AD69A8FE295E735
:100F40000197F1F700C00000DE98DF98C3E0DF9A58
:100F500083E00E944C07DF988FE097E20197F1F75A
:100F600000C00000C15099F7DF9A82E00E944C0750
:100F7000DF988FEC97E00197F1F700C0000088E25E
:100F80000E94740788E00E94740781E00E94740741
:100F90008FE99FE00197F1F700C0000086E00E9412
:100FA00074078CE0CF910C94740780EB87BB8DB1F4
:100FB00080658DB98DB1837F8DB9699A08958D98BB
:100FC000959A8E98969A08958F929F92AF92BF921B
:100FD000CF92DF92EF92FF92CF93DF93CDB7DEB740
:100FE00028970FB6F894DEBF0FBECDBF81B38561E1
:100FF00081BBBE016B5E7F4F83E00E94A203F82E8F
:10100000CE0145960E946806F11086C0682F70E0F8
:1010100080E090E0EC8DFD8D0995BE016B5E7F4F09
:10102000CE0101960E94BA03811176C069817A814E
:101030008B819C81AE014B5E5F4F0E943C044B0153
:101040005C016D817E818F819885AE014B5E5F4F23
:101050000E94E40420E030E048EC52E40E94440C9A
:101060006B017C0120E030E048EC51E4C501B401A3
:101070000E949E0D181654F020E030E040EA51E442
:10108000C501B4010E943F0C87FF18C020E030EC7E
:1010900040E854E4C701B6010E949E0D181654F0B2
:1010A00020E030E04AE754E4C701B6010E943F0C5B
:1010B00087FF04C0949A909892982EC020E030E068
:1010C00048EC51E4C501B4010E949E0D1816F4F0DD
:1010D00020E030E040EA51E4C501B4010E943F0C39
:1010E00087FD14C020E030EC40E854E4C701B601AD
:1010F0000E949E0D181654F020E030E04AE754E4B8
:10110000C701B6010E943F0C87FF03C0929A9098D6
:1011100002C0909A9298949828960FB6F894DEBFE1
:101120000FBECDBFDF91CF91FF90EF90DF90CF90BA
:10113000BF90AF909F908F900895CF93DF93CDB7DE
:10114000DEB7C954D1090FB6F894DEBF0FBECDBFCC
:101150000E94D5070E9497070E94780ACE01019647
:101160000E94C0060E94DF078DB79EB78A970FB610
:10117000F8949EBF0FBE8DBFADB7BEB711968AE281
:10118000FE01319601900D928A95E1F70E94E407E5
:101190000FB6F894DEBF0FBECDBFC12CD12C7E019F
:1011A0009BE2E90EF11C8CE9282E80E0382E93EBAF
:1011B000892E90E0992E859B4AC0869B48C0CE011F
:1011C0008D5B9F4F0E94B30A24968FAD24971F9288
:1011D0008F9325968FAD25971F928F9326968FAD6F
:1011E00026971F928F933F922F92FF92EF920E9429
:1011F000300E60E080E00E948607C7010E947A07F7
:1012000029968FAD29971F928F9328968FAD289797
:101210001F928F9327968FAD27971F928F932A96B1
:101220008FAD2A971F928F939F928F92FF92EF928A
:101230000E94300E61E080E00E948607C7010E9494
:101240007A070FB6F894DEBF0FBECDBFA6C0859952
:1012500049C0869B47C0BE016F5F7F4F83E00E94FD
:10126000A203782ECE0101960E946806711095C0E7
:10127000682F70E080E090E0E885F9850995BE016F
:101280006F5F7F4FCE01CB960E94BA03811185C05C
:101290006BAD7CAD8DAD9EADAE014F5F5F4F0E94DB
:1012A0003C042B013C010E948D0760E082E00E941B
:1012B000860789EC90E00E947A07870121E042E0EE
:1012C000C301B2010E94100E61E085E00E94860712
:1012D000C7010E947A0761E08AE00E94860786EDD6
:1012E00090E052C0859B59C0869957C0BE016F5F80
:1012F0007F4F83E00E94A203782ECE0101960E94C8
:10130000680671104AC0682F70E080E090E0E885C0
:10131000F9850995BE016F5F7F4FCE01CB960E9484
:10132000BA0381113AC023966CAD7DAD8EAD9FADF1
:101330002397AE014F5F5F4F0E94E4042B013C01F5
:101340000E948D0760E083E00E94860788ED90E0B0
:101350000E947A0720E030E048EC52E4C301B20179
:101360000E94440C870121E044E00E94100E61E0DD
:1013700083E00E948607C7010E947A0761E08AE045
:101380000E94860783EE90E00E947A07E885F9853F
:1013900068EE73E080E090E0099599E5C91692E067
:1013A000D9060CF498C0BE016F5F7F4F83E00E94A6
:1013B000A203D82ECE0101960E946806D11059C012
:1013C000682F70E080E090E0E885F9850995BE011E
:1013D0006F5F7F4FCE01CB960E94BA03811149C047
:1013E0006BAD7CAD8DAD9EADAE014F5F5F4F0E948A
:1013F0003C045B016C0123966CAD7DAD8EAD9FAD61
:101400002397AE014F5F5F4F0E94E40420E030E07D
:1014100048EC52E40E94440C2B013C0120E030E0F7
:1014200048EC51E4C601B5010E949E0D181654F017
:1014300020E030E040EA51E4C601B5010E943F0CD3
:1014400087FF1AC020E030EC40E854E4C301B20149
:101450000E949E0D181654F020E030E04AE754E454
:10146000C301B2010E943F0C87FF06C0949A909876
:101470009298C12CD12C32C020E030E048EC51E4ED
:10148000C601B5010E949E0D1816F4F020E030E070
:1014900040EA51E4C601B5010E943F0C87FD14C02B
:1014A00020E030EC40E854E4C301B2010E949E0DFC
:1014B000181654F020E030E04AE754E4C301B201CA
:1014C0000E943F0C87FF03C0929A909802C0909AA6
:1014D00092989498CECF2FEFC21AD20A8FEF90E74E
:1014E00022E0815090402040E1F700C0000063CE30
:1014F000A09AA19AA298A898A9980895FC01A89AE0
:10150000A29A20E030E070E0CB01022E02C0959557
:1015100087950A94E2F780FF02C0AA9A01C0AA98B0
:10152000A99AA9982F5F3F4F2830310569F7A298F3
:1015300020E030E090E061E070E0AB01022E01C0FD
:10154000440F0A94EAF79A9B02C0942B02C040957C
:101550009423A99AA9982F5F3F4F2830310569F746
:101560009083A89808950F931F93CF93DF931F92B2
:10157000CDB7DEB78C0161E8CE0101960E947E0AEC
:101580008981982F9077969596959695292F220F79
:10159000220F920F8F70890FF801808363E8CE01CC
:1015A00001960E947E0A8981982F9077969596954C
:1015B0009695292F220F220F920F8F70890FF80115
:1015C000818365E8CE0101960E947E0A8981982F69
:1015D0009073969596959695292F220F220F920F2C
:1015E0008F70890FF801828367E8CE0101960E940F
:1015F0007E0A8981982F9073969596959695292FB6
:10160000220F220F920F8F70890FF801838369E8F0
:10161000CE0101960E947E0A898184FB992790F968
:10162000990F292F220F220F920F8F70890FF80127
:1016300084836DE8CE0101960E947E0A8981982FED
:1016400092959F708F70FAE09F9F800D1124F80192
:1016500085836BE8CE0101960E947E0AE9818E2F78
:1016600090E0FC013197E730F105C8F4E65DFF4FEB
:101670000C947B0B87EE90E014C08BEE90E011C0D1
:101680008FEE90E00EC083EF90E00BC087EF90E00C
:1016900008C08BEF90E005C08FEF90E002C083E0C0
:1016A00091E0F80186830F90DF91CF911F910F9108
:1016B0000895A1E21A2EAA1BBB1BFD010DC0AA1F93
:1016C000BB1FEE1FFF1FA217B307E407F50720F0AB
:1016D000A21BB30BE40BF50B661F771F881F991F26
:1016E0001A9469F760957095809590959B01AC016F
:1016F000BD01CF010895EE0FFF1F0590F491E02D7D
:1017000009940E94C30BA59F900DB49F900DA49FB8
:10171000800D911D112408952F923F924F925F9258
:101720006F927F928F929F92AF92BF92CF92DF92F1
:10173000EF92FF920F931F93CF93DF93CDB7DEB756
:10174000CA1BDB0B0FB6F894DEBF0FBECDBF0994EA
:101750002A88398848885F846E847D848C849B8441
:10176000AA84B984C884DF80EE80FD800C811B814F
:10177000AA81B981CE0FD11D0FB6F894DEBF0FBE7E
:10178000CDBFED010895A29FB001B39FC001A39FFB
:10179000700D811D1124911DB29F700D811D1124AA
:1017A000911D08955058BB27AA270E94EA0B0C945C
:1017B000640D0E94560D38F00E945D0D20F039F442
:1017C0009F3F19F426F40C94530D0EF4E095E7FBBB
:1017D0000C944D0DE92F0E94750D58F3BA1762074E
:1017E00073078407950720F079F4A6F50C94970DFC
:1017F0000EF4E0950B2EBA2FA02D0B01B90190012C
:101800000C01CA01A0011124FF27591B99F0593F6F
:1018100050F4503E68F11A16F040A22F232F342FB7
:101820004427585FF3CF469537952795A795F04005
:101830005395C9F77EF41F16BA0B620B730B840B1A
:10184000BAF09150A1F0FF0FBB1F661F771F881FD2
:10185000C2F70EC0BA0F621F731F841F48F487952A
:1018600077956795B795F7959E3F08F0B0CF93951C
:10187000880F08F09927EE0F9795879508950E9495
:10188000290D08F481E008950E94580C0C94640D11
:101890000E945D0D58F00E94560D40F029F45F3F04
:1018A00029F00C944D0D51110C94980D0C94530D7E
:1018B0000E94750D68F39923B1F3552391F3951B9D
:1018C000550BBB27AA2762177307840738F09F5F61
:1018D0005F4F220F331F441FAA1FA9F335D00E2ECE
:1018E0003AF0E0E832D091505040E695001CCAF73B
:1018F0002BD0FE2F29D0660F771F881FBB1F2617FE
:1019000037074807AB07B0E809F0BB0B802DBF01D4
:10191000FF2793585F4F3AF09E3F510578F00C94A3
:101920004D0D0C94980D5F3FE4F3983ED4F38695EB
:1019300077956795B795F7959F5FC9F7880F911DC4
:101940009695879597F90895E1E0660F771F881FB0
:10195000BB1F621773078407BA0720F0621B730B63
:10196000840BBA0BEE1F88F7E09508950E94BD0C1A
:101970006894B1110C94980D08950E947D0D88F023
:101980009F5798F0B92F9927B751B0F0E1F0660F43
:10199000771F881F991F1AF0BA95C9F714C0B13084
:1019A00091F00E94970DB1E008950C94970D672F68
:1019B000782F8827B85F39F0B93FCCF386957795B3
:1019C0006795B395D9F73EF490958095709561959C
:1019D0007F4F8F4F9F4F0895E89409C097FB3EF4C7
:1019E00090958095709561957F4F8F4F9F4F99236C
:1019F000A9F0F92F96E9BB279395F69587957795EA
:101A00006795B795F111F8CFFAF4BB0F11F460FFA9
:101A10001BC06F5F7F4F8F4F9F4F16C0882311F001
:101A200096E911C0772321F09EE8872F762F05C015
:101A3000662371F096E8862F70E060E02AF09A95B0
:101A4000660F771F881FDAF7880F9695879597F9A5
:101A50000895990F0008550FAA0BE0E8FEEF16163F
:101A60001706E807F907C0F012161306E407F50792
:101A700098F0621B730B840B950B39F40A2661F006
:101A8000232B242B252B21F408950A2609F4A140A9
:101A9000A6958FEF811D811D089597F99F6780E8B6
:101AA00070E060E008959FEF80EC089500240A94B0
:101AB0001616170618060906089500240A94121629
:101AC0001306140605060895092E0394000C11F45C
:101AD000882352F0BB0F40F4BF2B11F460FF04C009
:101AE0006F5F7F4F8F4F9F4F089557FD9058440F62
:101AF000551F59F05F3F71F04795880F97FB991F6D
:101B000061F09F3F79F08795089512161306140629
:101B1000551FF2CF4695F1DF08C0161617061806B6
:101B2000991FF1CF86957105610508940895E89491
:101B3000BB2766277727CB0197F908950E94290DC7
:101B400008F48FEF08950E94B60D0C94640D0E9466
:101B5000560D38F00E945D0D20F0952311F00C9485
:101B60004D0D0C94530D11240C94980D0E94750D7D
:101B700070F3959FC1F3950F50E0551F629FF001E0
:101B8000729FBB27F00DB11D639FAA27F00DB11DF9
:101B9000AA1F649F6627B00DA11D661F829F222782
:101BA000B00DA11D621F739FB00DA11D621F839F09
:101BB000A00D611D221F749F3327A00D611D231FDF
:101BC000849F600D211D822F762F6A2F11249F572D
:101BD00050409AF0F1F088234AF0EE0FFF1FBB1F30
:101BE000661F771F881F91505040A9F79E3F5105EF
:101BF00080F00C944D0D0C94980D5F3FE4F3983EEB
:101C0000D4F3869577956795B795F795E7959F5F98
:101C1000C1F7FE2B880F911D9695879597F908952A
:101C2000EF920F931F93CF93DF93E80147FD02C01C
:101C300034E001C034E1E42F440FFF0BF7FF03C091
:101C4000F195E195F109E32E022F2E2FAE010E94AE
:101C50002510CE01DF91CF911F910F91EF90089544
:101C6000AEE0B0E0E6E3FEE00C949A0B0D891E892D
:101C700086E08C831A8309838FEF9FE79E838D8391
:101C8000AE01475E5F4F6F89788DCE0101960E944D
:101C9000530E2F813885F801E20FF31F10822E9624
:101CA000E4E00C94B60BACE0B0E0E9E5FEE00C94A7
:101CB0008C0B7C016B018A01FC01178216828381E7
:101CC00081FFBDC1CE0101964C01F7019381F60160
:101CD00093FD859193FF81916F01882309F4ABC136
:101CE000853239F493FD859193FF81916F0185329F
:101CF00029F4B70190E00E94A112E7CF512C312CBA
:101D000020E02032A0F48B3269F030F4803259F0B8
:101D1000833269F420612CC08D3239F0803339F47C
:101D2000216026C02260246023C0286021C027FDD6
:101D300027C030ED380F3A3078F426FF06C0FAE0BD
:101D40005F9E300D1124532E13C08AE0389E300D53
:101D50001124332E20620CC08E3221F426FD6BC17B
:101D6000206406C08C3611F4206802C0883641F425
:101D7000F60193FD859193FF81916F018111C1CF90
:101D8000982F9F7D9554933028F40C5F1F4FFFE3ED
:101D9000F9830DC0833631F0833771F0833509F054
:101DA0005BC022C0F801808189830E5F1F4F4424ED
:101DB0004394512C540115C03801F2E06F0E711C90
:101DC000F801A080B18026FF03C0652D70E002C03D
:101DD0006FEF7FEFC5012C870E9496122C018301C3
:101DE0002C852F77222E17C03801F2E06F0E711C60
:101DF000F801A080B18026FF03C0652D70E002C00D
:101E00006FEF7FEFC5012C870E948B122C012C8570
:101E10002068222E830123FC1BC0832D90E04816EE
:101E20005906B0F4B70180E290E00E94A1123A9402
:101E3000F4CFF50127FC859127FE81915F01B70161
:101E400090E00E94A11231103A94F1E04F1A51082B
:101E50004114510471F7E5C0843611F0893639F523
:101E6000F80127FF07C060817181828193810C5F37
:101E70001F4F08C060817181072E000C880B990BE1
:101E80000E5F1F4F2F76722E97FF09C09095809599
:101E9000709561957F4F8F4F9F4F2068722E2AE07B
:101EA00030E0A4010E94D912A82EA81844C085379A
:101EB00029F42F7EB22E2AE030E025C0F22FF97FE0
:101EC000BF2E8F36C1F018F4883579F0B4C0803752
:101ED00019F0883721F0AFC02F2F2061B22EB4FE49
:101EE0000DC08B2D8460B82E09C024FF0AC09F2F1F
:101EF0009660B92E06C028E030E005C020E130E051
:101F000002C020E132E0F801B7FE07C060817181B4
:101F1000828193810C5F1F4F06C06081718180E0D8
:101F200090E00E5F1F4FA4010E94D912A82EA8189E
:101F3000FB2DFF777F2E76FE0BC0372D3E7FA5143D
:101F400050F474FE0AC072FC08C0372D3E7E05C0F6
:101F5000BA2C372D03C0BA2C01C0B52C34FF0DC0EC
:101F6000FE01EA0DF11D8081803311F4397E09C034
:101F700032FF06C0B394B39404C0832F867809F06F
:101F8000B39433FD13C030FF06C05A2CB31418F4B9
:101F9000530C5B18B32CB31468F4B70180E290E0E3
:101FA0003C870E94A112B3943C85F5CFB31410F482
:101FB0003B1801C0312C34FF12C0B70180E390E020
:101FC0003C870E94A1123C8532FF17C031FD03C03F
:101FD00088E790E002C088E590E0B7010CC0832F4D
:101FE000867859F031FF02C08BE201C080E237FDF4
:101FF0008DE2B70190E00E94A112A51438F4B70158
:1020000080E390E00E94A1125A94F7CFAA94F401C1
:10201000EA0DF11D8081B70190E00E94A112A1108C
:10202000F5CF332009F451CEB70180E290E00E9451
:10203000A1123A94F6CFF7018681978102C08FEF03
:102040009FEF2C96E2E10C94A80B4F925F926F9257
:102050007F929F92AF92BF92CF92DF92EF92FF92C8
:102060000F931F93CF93DF93CDB7DEB729970FB6AA
:10207000F894DEBF0FBECDBF6A01122FB02E2BE346
:10208000201720F0FF24F394F00E02C0BCE3FB2ED7
:102090000F2D27E0AE014F5F5F4F0E94B311AC01DF
:1020A0008981982F9970913031F0E1FC06C0E0FEF3
:1020B00006C090E205C09DE203C09BE201C090E033
:1020C000EE2DE07183FF3CC0911102C083E001C09E
:1020D00084E0811718F4212F281B01C020E0E111B2
:1020E0000BC0F601822F30E2882319F03193815022
:1020F000FBCFC20ED11C20E0992329F0D6019C937E
:10210000F60131966F01C6010396E2FE0AC03EE475
:10211000D6013C9341E411964C93119712963C934F
:1021200006C03EE6F601308341E641833283FC017E
:10213000322F40E2332309F442C041933150FACFA9
:1021400082FF44C0911102C083E001C084E0811786
:1021500018F4212F281B01C020E0E1110BC0F6016B
:10216000822F30E2882319F031938150FBCFC20EC9
:10217000D11C20E0992329F0D6019C93F6013196D9
:102180006F01C6010396E2FE0BC039E4D6013C9311
:102190003EE411963C93119736E412963C9307C0A7
:1021A00039E6F60130833EE6318336E63283FC01C0
:1021B000322F40E2332319F041933150FBCFFC0121
:1021C000E20FF11D10828EEF9FEFB7C0F1E0911189
:1021D00001C0F0E06F2F70E01416150624F49A0188
:1021E0002F5F3F4F02C021E030E0260F371FBB209A
:1021F00029F06B2D70E06F5F7F4F02C060E070E0F0
:10220000260F371F612F70E0261737071CF4121BAB
:10221000212F01C020E03E2D387159F4D601322F14
:1022200060E2332319F06D933150FBCFC20ED11C05
:1022300020E0FF2331F0D6019C93B6016F5F7F4F02
:102240006B01E1110BC0F601922F30E3992319F0D5
:1022500031939150FBCFC20ED11C20E09F2D940FE3
:102260003A81782F7071A72E84FF03C0313309F4AF
:102270009150191624F4993018F098E001C091E0BB
:10228000E42F852F57FF02C0E0E080E06E2F782F0B
:10229000E0E0F0E0AEE29A2E3A01691A71082A01F4
:1022A000461A570A0B2D10E01195019511096F3F41
:1022B0008FEF780729F4D6019C92C60101966C0134
:1022C0004617570784F0661677066CF47F01E40C16
:1022D000F51CA1E0B0E0AC0FBD1FEA0EFB1ED7015C
:1022E0001196BC9002C090E3B92E615071093196ED
:1022F000C60101967C016017710724F0D601BC92DB
:102300006C01D5CF6417750741F4363320F43533AB
:1023100021F4A11002C081E3B82EF601B082F701CA
:10232000822F90E2882319F091938150FBCFF7011F
:10233000E20FF11D108280E090E029960FB6F8942C
:10234000DEBF0FBECDBFDF91CF911F910F91FF90E8
:10235000EF90DF90CF90BF90AF909F907F906F9065
:102360005F904F900895283008F027E03327DA0176
:10237000990F311D87FD916000966105710539F453
:1023800032602E5F3D9330E32A95E1F708959F3F39
:1023900030F080387105610509F03C5F3C5F3D938A
:1023A000913008F08068911DDF93CF931F930F93B6
:1023B000FF92EF92192F987F9695E92F9695969513
:1023C000E90FFF27E454FF4F99273327EE24FF241A
:1023D000A701E70105900894079428F4360FE71E3B
:1023E000F81E491F511D660F771F881F991F0694FD
:1023F000A1F70590079428F4E70EF81E491F561F11
:10240000C11D770F881F991F661F0694A1F70590BD
:10241000079428F4F80E491F561FC71FD11D880FB7
:10242000991F661F771F0694A1F70590079420F463
:10243000490F561FC71FD81F990F661F771F881F88
:102440000694A9F784911095177041F0D695C79519
:1024500057954795F794E7941A95C1F7E2E6F0E0AF
:1024600068941590159135916591959105907FE24D
:102470007395E118F10A430B560BC90BD009C0F74D
:10248000E10CF11E431F561FC91FD01D7EF470338F
:1024900011F48A95E6CFE894015030F0080F0AF461
:1024A0000027021708F4202F2395022F7A3328F0F3
:1024B00079E37D932A95E9F710C07D932A9589F6F3
:1024C000069497956795379517951794E118F10A33
:1024D000430B560BC90BD00998F023957E91739549
:1024E0007A3308F070E37C932013B8F77E91706123
:1024F0007D9330F0839571E37D9370E32A95E1F746
:102500001124EF90FF900F911F91CF91DF919927A8
:1025100087FD90950895FC01059061507040011071
:10252000D8F7809590958E0F9F1F0895FC016150FC
:10253000704001900110D8F7809590958E0F9F1FE5
:1025400008950F931F93CF93DF93FB01238121FD08
:1025500003C08FEF9FEF28C022FF16C0468157812E
:10256000248135814217530744F4A081B1819D0134
:102570002F5F3F4F318320838C93268137812F5FDC
:102580003F4F3783268310C0EB01092F182F00849B
:10259000F185E02D0995892BE1F68E819F810196C9
:1025A0009F838E83812F902FDF91CF911F910F9169
:1025B0000895FA01AA27283051F1203181F1E894D9
:1025C0006F936E7F6E5F7F4F8F4F9F4FAF4FB1E026
:1025D0003ED0B4E03CD0670F781F891F9A1FA11D21
:1025E000680F791F8A1F911DA11D6A0F711D811D22
:1025F000911DA11D20D009F468943F912AE0269FE7
:1026000011243019305D3193DEF6CF010895462F45
:102610004770405D4193B3E00FD0C9F7F6CF462F26
:102620004F70405D4A3318F0495D31FD405241938F
:1026300002D0A9F7EACFB4E0A6959795879577954C
:102640006795BA95C9F700976105710508959B01D3
:10265000AC010A2E06945795479537952795BA955C
:10266000C9F7620F731F841F951FA01D0895F8946A
:02267000FFCF9A
:10267200496E6974204572726F7200676574436FA8
:102682006E666967204572726F7200736574436F7C
:102692006E666967204572726F7200506F7765725D
:1026A200204D6F6465204572726F7200476F647AC5
:1026B200696E6120253032693A253032693A253017
:1026C20032690025732C20253032692E253032697B
:1026D2002E323025303269720054454D50455241F8
:1026E200545552413A0043004349534E49454E49DD
:1026F200453A0048506100504F4E0057544F005326
:10270200524F00435A570050494100534F42004E26
:08271200494500455252000048
:00000001FF
