:100000000C9440000C9455000C9455000C94550031
:100010000C9455000C9455000C9455000C9455000C
:100020000C9455000C9455000C9455000C945500FC
:100030000C9455000C9455000C9455000C945500EC
:100040000C9455000C9455000C9455000C945500DC
:100050000C9455006E057105740577057A057D05CC
:10006000800532333A33313A35340031372E30326D
:100070002E323031390031303000312E302E300008
:1000800011241FBECFE5D4E0DEBFCDBF11E0A0E656
:10009000B0E0E8EEF0E102C005900D92AE31B1079C
:1000A000D9F70E9493020C9472080C940000EF920E
:1000B000FF920F931F93CF93DF9300D000D01F9236
:1000C000CDB7DEB77C01FE01319685E0DF011D92E0
:1000D0008A95E9F7A39AAB9ABFEF20E742E0B150C7
:1000E00020404040E1F700C00000AB988FE99CE859
:1000F0000197F1F700C00000AB9AA3989AE69A9591
:10010000F1F700C09B9B02C08FEF4DC0A5EDAA95F3
:10011000F1F700009B9BF8CFB5EDBA95F1F7000021
:1001200001E010E085E08E0F27E030E090E049EC40
:1001300050E09B9904C041505109D9F7E5CF40E503
:100140004A95F1F79B9B07C0A801022E01C0440FFE
:100150000A94EAF7942B49EC50E09B9B04C0415071
:100160005109D9F7D1CF2150310908F791938E1356
:10017000DBCFA39AAB9ABFEFE0E7F2E0B150E040EB
:10018000F040E1F700C0000089813B819A81980F1F
:10019000930F2C81920F2D819213B6CFD7013C93F0
:1001A000FB01808380E00F900F900F900F900F90D5
:1001B000DF91CF911F910F91FF90EF900895EF92F3
:1001C000FF920F931F93CF93DF9300D000D01F9225
:1001D000CDB7DEB77C01FE01319685E0DF011D92CF
:1001E0008A95E9F7A49AAC9ABFEF20E742E0B150B4
:1001F00020404040E1F700C00000AC988FE99CE847
:100200000197F1F700C00000AC9AA4989AE69A957D
:10021000F1F700C09C9B02C08FEF4DC0A5EDAA95E1
:10022000F1F700009C9BF8CFB5EDBA95F1F700000F
:1002300001E010E085E08E0F27E030E090E049EC2F
:1002400050E09C9904C041505109D9F7E5CF40E5F1
:100250004A95F1F79C9B07C0A801022E01C0440FEC
:100260000A94EAF7942B49EC50E09C9B04C041505F
:100270005109D9F7D1CF2150310908F791938E1345
:10028000DBCFA49AAC9ABFEFE0E7F2E0B150E040D8
:10029000F040E1F700C0000089813B819A81980F0E
:1002A000930F2C81920F2D819213B6CFD7013C93DF
:1002B000FB01808380E00F900F900F900F900F90C4
:1002C000DF91CF911F910F91FF90EF900895EF92E2
:1002D000FF920F931F93CF93DF9300D000D01F9214
:1002E000CDB7DEB77C01FE01319685E0DF011D92BE
:1002F0008A95E9F7A59AAD9ABFEF20E742E0B150A1
:1003000020404040E1F700C00000AD988FE99CE834
:100310000197F1F700C00000AD9AA5989AE69A956A
:10032000F1F700C09D9B02C08FEF4DC0A5EDAA95CF
:10033000F1F700009D9BF8CFB5EDBA95F1F70000FD
:1003400001E010E085E08E0F27E030E090E049EC1E
:1003500050E09D9904C041505109D9F7E5CF40E5DF
:100360004A95F1F79D9B07C0A801022E01C0440FDA
:100370000A94EAF7942B49EC50E09D9B04C041504D
:100380005109D9F7D1CF2150310908F791938E1334
:10039000DBCFA59AAD9ABFEFE0E7F2E0B150E040C5
:1003A000F040E1F700C0000089813B819A81980FFD
:1003B000930F2C81920F2D819213B6CFD7013C93CE
:1003C000FB01808380E00F900F900F900F900F90B3
:1003D000DF91CF911F910F91FF90EF900895411100
:1003E00002C00C945700413011F40C94DF004230ED
:1003F00011F40C946701089580FF02C0909A01C027
:10040000909881FF02C0919A01C0919882FF02C02A
:10041000929A01C0929883FF02C0939A089593988C
:100420000895CF93C82F959A82958F700E94FC01F2
:100430009598959A8C2F0E94FC01959885E88A954D
:10044000F1F70000CF91089596980C941102969AB6
:100450000C941102CF93DF93EC018991882319F05A
:100460000E942702FACFDF91CF91089590E4699F0F
:10047000800D112480680C94240281E00E942402E3
:100480008FE99FE00197F1F700C000000895CF9336
:10049000889A899A8A9A8B9A8D9A8E9A8FE295E792
:1004A0000197F1F700C0000096989598C3E0959ADF
:1004B00083E00E94FC0195988FE097E20197F1F7A5
:1004C00000C00000C15099F7959A82E00E94FC019B
:1004D00095988FEC97E00197F1F700C0000088E253
:1004E0000E94240288E00E94240281E00E942402EB
:1004F0008FE99FE00197F1F700C0000086E00E94BD
:1005000024028CE0CF910C942402D098D89AD198F0
:10051000D99AA698AE9A0895A79AAF988F9A979865
:100520008C9A94980895CF93DF93CDB7DEB7C354D8
:10053000D1090FB6F894DEBF0FBECDBF0E944702AF
:100540000E94AC040E9485020E948C0281E090E02F
:1005500020E030E0612C712C812C912C412C512C0D
:10056000A12CB12CE12CF12C212C312C8E010F5E11
:100570001F4FAE014F5F5F4F6A01C9990FC0AB2893
:10058000B9F45FEFE51AF50AAA24A394B12C43E06D
:10059000E416F10484F0E12CF12C0DC0C89905C0DB
:1005A000AB2831F451E0252603C0A12CB12C03C0A7
:1005B000AA24A394B12C019709F064C040E0BE01C5
:1005C000685C7F4FCE01CB960E94EF0141E0BE01F7
:1005D000695C7F4FCE01CA960E94EF0142E0BE01E6
:1005E0006A5C7F4FCE01C9960E94EF018BAD8C31C2
:1005F000A4F0CE018F960E94E7048BAD282F880FC0
:10060000330B3DAF2CAFAF9A8FE19EE40197F1F72A
:1006100000C0000044244394512C8AAD8C31A4F0D6
:10062000CE0188960E94E7048AAD282F880F330BED
:100630003FAF2EAF979A8FE19EE40197F1F700C08C
:10064000000088248394912C89AD8C31CCF0CE01AC
:1006500081960E94E70489AD282F880F330B2296DC
:100660003FAF2EAF2297949A8FE19EE40197F1F766
:1006700000C0000020E030E066246394712C02C0CA
:1006800020E030E0A9014F5F5F4F24965FAF4EAF8F
:1006900024972114310409F070C0C70101969F937B
:1006A0008F9380E690E09F938F931F930F930E9408
:1006B0009A050F900F900F900F900F900F90E114EC
:1006C000F10449F488AD282F082E000C330B3F931A
:1006D0008F938BAD19C091E0E916F10449F48FA90D
:1006E000282F082E000C330B3F938F938AAD0CC03C
:1006F00032E0E316F104D9F48EA9282F082E000C5D
:10070000330B3F938F9389AD282F082E000C330BAA
:100710003F938F938CE690E09F938F93DF92CF92DD
:100720000E949A050FB6F894DEBF0FBECDBF0E949F
:100730003D0260E080E00E943602C8010E942A0269
:1007400061E080E00E943602C6010E942A025FEF4B
:1007500080E792E0515080409040E1F700C00000F7
:1007600024962EAD3FAD249751E040E0253631056B
:100770000CF450E0852F942F00CFE114F104E9F53B
:1007800021E04216510461F53DAD3F934CAD4F93CE
:1007900080E890E09F938F931F930F930E949A0598
:1007A0008BA91F928F938AA91F928F938FA51F9257
:1007B0008F9388A91F928F9389A91F928F9383E9A2
:1007C00090E09F938F93DF92CF920E949A050FB68D
:1007D000F894DEBF0FBECDBF9E9995C0AF980AC0FA
:1007E0006DEA70E0C8010E94930566EB70E0C601F7
:1007F0000E949305412C512C86C091E0E916F1042A
:10080000E9F521E08216910461F53FAD3F934EADCD
:100810004F9385EC90E09F938F931F930F930E94CB
:100820009A058CA51F928F938BA51F928F9388A5F5
:100830001F928F9389A51F928F938AA51F928F93E2
:1008400083E990E09F938F93DF92CF920E949A0565
:100850000FB6F894DEBF0FBECDBF9E9954C09798D7
:100860000AC068ED70E0C8010E94930566EB70E075
:10087000C6010E949305812C912C45C092E0E91697
:10088000F10409F040C021E06216710481F522965E
:100890003FAD22973F9321964FAD21974F9381EE25
:1008A00090E09F938F931F930F930E949A058DA1C1
:1008B0001F928F938CA11F928F9389A11F928F9368
:1008C0008AA11F928F938BA11F928F9383E990E04F
:1008D0009F938F93DF92CF920E949A050FB6F89460
:1008E000DEBF0FBECDBF9E990EC094980AC064EFC4
:1008F00070E0C8010E94930566EB70E0C6010E949B
:100900009305612C712C0E943D0260E080E00E9402
:100910003602C8010E942A0261E080E00E9436028D
:10092000C6010E942A029FEF20E732E0915020404A
:100930003040E1F700C0000024962EAD3FAD249773
:1009400051E040E0253631050CF450E0852F942F1E
:1009500022242394312C11CEA09AA19AA298A8986F
:10096000A9980895FC01A89AA29A20E030E070E0CE
:10097000CB01022E02C0959587950A94E2F780FF7D
:1009800002C0AA9A01C0AA98A99AA9982F5F3F4FBE
:100990002830310569F7A29820E030E090E061E06E
:1009A00070E0AB01022E01C0440F0A94EAF79A9B53
:1009B00002C0942B02C040959423A99AA9982F5F56
:1009C0003F4F2830310569F79083A89808950F9319
:1009D0001F93CF93DF931F92CDB7DEB78C0161E8F1
:1009E000CE0101960E94B2048981982F9077969546
:1009F00096959695292F220F220F920F8F70890FAF
:100A0000F801808363E8CE0101960E94B2048981D7
:100A1000982F9077969596959695292F220F220FCD
:100A2000920F8F70890FF801818365E8CE010196DE
:100A30000E94B2048981982F907396959695969509
:100A4000292F220F220F920F8F70890FF8018283B6
:100A500067E8CE0101960E94B2048981982F9073B5
:100A6000969596959695292F220F220F920F8F70AB
:100A7000890FF801838369E8CE0101960E94B204D0
:100A8000898184FB992790F9990F292F220F220F32
:100A9000920F8F70890FF80184836DE8CE01019663
:100AA0000E94B2048981982F92959F708F70FAE00E
:100AB0009F9F800D1124F80185836BE8CE0101967C
:100AC0000E94B204E9818E2F90E0FC013197E7305B
:100AD000F105C8F4E65DFF4F0C948D058DEF90E0B5
:100AE00014C081E091E011C085E091E00EC089E082
:100AF00091E00BC08DE091E008C081E191E005C07C
:100B000085E191E002C089E191E0F80186830F90D0
:100B1000DF91CF911F910F910895EE0FFF1F059068
:100B2000F491E02D0994FB01DC0101900D9200206D
:100B3000E1F70895AEE0B0E0E0EAF5E00C94490892
:100B40000D891E8986E08C831A8309838FEF9FE7C6
:100B50009E838D83AE01475E5F4F6F89788DCE0196
:100B600001960E94BD052F813885F801E20FF31F21
:100B700010822E96E4E00C946508ACE0B0E0E3EC63
:100B8000F5E00C943B087C016B018A01FC011782A3
:100B90001682838181FFBDC1CE0101964C01F70110
:100BA0009381F60193FD859193FF81916F018823D5
:100BB00009F4ABC1853239F493FD859193FF81919E
:100BC0006F01853229F4B70190E00E94A507E7CFB5
:100BD000512C312C20E02032A0F48B3269F030F41B
:100BE000803259F0833269F420612CC08D3239F0A3
:100BF000803339F4216026C02260246023C028603D
:100C000021C027FD27C030ED380F3A3078F426FF99
:100C100006C0FAE05F9E300D1124532E13C08AE007
:100C2000389E300D1124332E20620CC08E3221F4F8
:100C300026FD6BC1206406C08C3611F4206802C00A
:100C4000883641F4F60193FD859193FF81916F0100
:100C50008111C1CF982F9F7D9554933028F40C5F5C
:100C60001F4FFFE3F9830DC0833631F0833771F0F6
:100C7000833509F05BC022C0F801808189830E5F53
:100C80001F4F44244394512C540115C03801F2E005
:100C90006F0E711CF801A080B18026FF03C0652D86
:100CA00070E002C06FEF7FEFC5012C870E949A07AA
:100CB0002C0183012C852F77222E17C03801F2E0FA
:100CC0006F0E711CF801A080B18026FF03C0652D56
:100CD00070E002C06FEF7FEFC5012C870E948F0785
:100CE0002C012C852068222E830123FC1BC0832D20
:100CF00090E048165906B0F4B70180E290E00E94F7
:100D0000A5073A94F4CFF50127FC859127FE819140
:100D10005F01B70190E00E94A50731103A94F1E01D
:100D20004F1A51084114510471F7E5C0843611F08F
:100D3000893639F5F80127FF07C06081718182810A
:100D400093810C5F1F4F08C060817181072E000CDA
:100D5000880B990B0E5F1F4F2F76722E97FF09C0DD
:100D600090958095709561957F4F8F4F9F4F20682C
:100D7000722E2AE030E0A4010E94DD07A82EA818F8
:100D800044C0853729F42F7EB22E2AE030E025C0FA
:100D9000F22FF97FBF2E8F36C1F018F4883579F025
:100DA000B4C0803719F0883721F0AFC02F2F2061F1
:100DB000B22EB4FE0DC08B2D8460B82E09C024FF66
:100DC0000AC09F2F9660B92E06C028E030E005C00B
:100DD00020E130E002C020E132E0F801B7FE07C0B8
:100DE00060817181828193810C5F1F4F06C0608199
:100DF000718180E090E00E5F1F4FA4010E94DD072B
:100E0000A82EA818FB2DFF777F2E76FE0BC0372D5E
:100E10003E7FA51450F474FE0AC072FC08C0372D42
:100E20003E7E05C0BA2C372D03C0BA2C01C0B52CAC
:100E300034FF0DC0FE01EA0DF11D8081803311F4F5
:100E4000397E09C032FF06C0B394B39404C0832F27
:100E5000867809F0B39433FD13C030FF06C05A2CD6
:100E6000B31418F4530C5B18B32CB31468F4B70123
:100E700080E290E03C870E94A507B3943C85F5CFC3
:100E8000B31410F43B1801C0312C34FF12C0B70169
:100E900080E390E03C870E94A5073C8532FF17C0A5
:100EA00031FD03C088E790E002C088E590E0B7011B
:100EB0000CC0832F867859F031FF02C08BE201C04D
:100EC00080E237FD8DE2B70190E00E94A507A514EE
:100ED00038F4B70180E390E00E94A5075A94F7CF59
:100EE000AA94F401EA0DF11D8081B70190E00E94FF
:100EF000A507A110F5CF332009F451CEB70180E248
:100F000090E00E94A5073A94F6CFF7018681978179
:100F100002C08FEF9FEF2C96E2E10C945708FC0182
:100F20000590615070400110D8F7809590958E0F14
:100F30009F1F0895FC016150704001900110D8F787
:100F4000809590958E0F9F1F08950F931F93CF93B9
:100F5000DF93FB01238121FD03C08FEF9FEF28C0AA
:100F600022FF16C0468157812481358142175307DD
:100F700044F4A081B1819D012F5F3F4F31832083D5
:100F80008C93268137812F5F3F4F3783268310C094
:100F9000EB01092F182F0084F185E02D0995892B8D
:100FA000E1F68E819F8101969F838E83812F902F02
:100FB000DF91CF911F910F910895FA01AA27283050
:100FC00051F1203181F1E8946F936E7F6E5F7F4F16
:100FD0008F4F9F4FAF4FB1E03ED0B4E03CD0670F92
:100FE000781F891F9A1FA11D680F791F8A1F911DE5
:100FF000A11D6A0F711D811D911DA11D20D009F435
:1010000068943F912AE0269F11243019305D319376
:10101000DEF6CF010895462F4770405D4193B3E05F
:101020000FD0C9F7F6CF462F4F70405D4A3318F006
:10103000495D31FD4052419302D0A9F7EACFB4E0B7
:10104000A6959795879577956795BA95C9F700976F
:101050006105710508959B01AC010A2E0694579510
:10106000479537952795BA95C9F7620F731F841F67
:10107000951FA01D08952F923F924F925F926F92FD
:101080007F928F929F92AF92BF92CF92DF92EF9218
:10109000FF920F931F93CF93DF93CDB7DEB7CA1B99
:1010A000DB0B0FB6F894DEBF0FBECDBF09942A88C4
:1010B000398848885F846E847D848C849B84AA846C
:1010C000B984C884DF80EE80FD800C811B81AA81F9
:1010D000B981CE0FD11D0FB6F894DEBF0FBECDBFC4
:0810E000ED010895F894FFCF23
:1010E80053454E534F52202530316900543A20253C
:1010F8003032692A4320483A2025303269252500B4
:1011080053454E534F52203120543A2025303269EE
:101118002A430020253032693A253032693A253091
:10112800326920253032692E253032690053454E08
:10113800534F522031006272616B206F7374727A60
:10114800657A656E0053454E534F52203220543A0B
:1011580020253032692A430053454E534F522032DE
:101168000053454E534F52203320543A20253032F5
:10117800692A430053454E534F52203300504F4E77
:101188000057544F0053524F00435A57005049419B
:0E11980000534F42004E4945004552520000A0
:00000001FF
